{
  "contractName": "copyrightcontract",
  "abi": [
    {
      "constant": true,
      "inputs": [
        {
          "internalType": "uint256",
          "name": "",
          "type": "uint256"
        }
      ],
      "name": "licenses",
      "outputs": [
        {
          "internalType": "uint256",
          "name": "copyright_id",
          "type": "uint256"
        },
        {
          "internalType": "string",
          "name": "imageHash",
          "type": "string"
        },
        {
          "internalType": "int256",
          "name": "auth_id",
          "type": "int256"
        },
        {
          "internalType": "bytes32",
          "name": "phashpart1",
          "type": "bytes32"
        },
        {
          "internalType": "bytes32",
          "name": "phashpart2",
          "type": "bytes32"
        }
      ],
      "payable": false,
      "stateMutability": "view",
      "type": "function"
    },
    {
      "constant": false,
      "inputs": [
        {
          "internalType": "string",
          "name": "_imageHash",
          "type": "string"
        },
        {
          "internalType": "bytes32",
          "name": "_phashpart1",
          "type": "bytes32"
        },
        {
          "internalType": "bytes32",
          "name": "_phashpart2",
          "type": "bytes32"
        },
        {
          "internalType": "int256",
          "name": "_authid",
          "type": "int256"
        }
      ],
      "name": "newCopyright",
      "outputs": [],
      "payable": false,
      "stateMutability": "nonpayable",
      "type": "function"
    }
  ],
  "bytecode": "0x608060405234801561001057600080fd5b506103e3806100206000396000f3fe608060405234801561001057600080fd5b50600436106100365760003560e01c8063337908451461003b578063fbb3d39a146100fe575b600080fd5b6100676004803603602081101561005157600080fd5b81019080803590602001909291905050506101d7565b6040518086815260200180602001858152602001848152602001838152602001828103825286818151815260200191508051906020019080838360005b838110156100bf5780820151818401526020810190506100a4565b50505050905090810190601f1680156100ec5780820380516001836020036101000a031916815260200191505b50965050505050505060405180910390f35b6101d56004803603608081101561011457600080fd5b810190808035906020019064010000000081111561013157600080fd5b82018360208201111561014357600080fd5b8035906020019184600183028401116401000000008311171561016557600080fd5b91908080601f016020809104026020016040519081016040528093929190818152602001838380828437600081840152601f19601f8201169050808301925050505050505091929192908035906020019092919080359060200190929190803590602001909291905050506102a5565b005b6001602052806000526040600020600091509050806000015490806001018054600181600116156101000203166002900480601f0160208091040260200160405190810160405280929190818152602001828054600181600116156101000203166002900480156102895780601f1061025e57610100808354040283529160200191610289565b820191906000526020600020905b81548152906001019060200180831161026c57829003601f168201915b5050505050908060020154908060030154908060040154905085565b6000808154809291906001019190505550600060016000805481526020019081526020016000209050848160010190805190602001906102e6929190610309565b508381600301819055508281600401819055508181600201819055505050505050565b828054600181600116156101000203166002900490600052602060002090601f016020900481019282601f1061034a57805160ff1916838001178555610378565b82800160010185558215610378579182015b8281111561037757825182559160200191906001019061035c565b5b5090506103859190610389565b5090565b6103ab91905b808211156103a757600081600090555060010161038f565b5090565b9056fea265627a7a72315820572c65054323a53e88f891eaa3aaf4cfa2d45644103787a2fda58bedad47f6a364736f6c63430005100032",
  "source": "pragma solidity>=0.4.20;\r\n\r\ncontract copyrightcontract\r\n{   \r\n    struct copyright\r\n        {   uint copyright_id;\r\n            string  imageHash;\r\n            int  auth_id;\r\n            bytes32  phashpart1;\r\n            bytes32  phashpart2;\r\n        }\r\n    uint numCopyrights;\r\n     mapping(uint => copyright) public licenses;\r\n    function newCopyright(string memory _imageHash,bytes32  _phashpart1, bytes32  _phashpart2,int _authid) public \r\n    {   \r\n         numCopyrights++;\r\n          copyright  storage c = licenses[numCopyrights];\r\n          c.imageHash =  _imageHash;\r\n          c.phashpart1 = _phashpart1;\r\n          c.phashpart2 = _phashpart2;\r\n          c.auth_id =_authid;\r\n\r\n    }\r\n   \r\n}",
  "sourcePath": "C:\\Users\\malav\\Downloads\\FinalYearProject-master\\FinalYearProject-master\\client\\src\\contracts\\copyrightcontract.sol",
  "compiler": {
    "name": "solc",
    "version": "0.5.16+commit.9c3226ce.Emscripten.clang"
  },
  "schemaVersion": "3.4.6",
  "updatedAt": "2022-06-06T16:07:29.413Z",
  "devdoc": {
    "methods": {}
  },
  "userdoc": {
    "methods": {}
  }
}