{
  "contractName": "cownershipcontract",
  "abi": [
    {
      "constant": true,
      "inputs": [
        {
          "internalType": "uint256",
          "name": "",
          "type": "uint256"
        }
      ],
      "name": "cownershiplicenses",
      "outputs": [
        {
          "internalType": "uint256",
          "name": "cownership_id",
          "type": "uint256"
        },
        {
          "internalType": "string",
          "name": "imageHash",
          "type": "string"
        },
        {
          "internalType": "int256",
          "name": "owner_id",
          "type": "int256"
        },
        {
          "internalType": "int256",
          "name": "user_id",
          "type": "int256"
        }
      ],
      "payable": false,
      "stateMutability": "view",
      "type": "function"
    },
    {
      "constant": false,
      "inputs": [
        {
          "internalType": "string",
          "name": "_imageHash",
          "type": "string"
        },
        {
          "internalType": "int256",
          "name": "_owner_id",
          "type": "int256"
        },
        {
          "internalType": "int256",
          "name": "_user_id",
          "type": "int256"
        }
      ],
      "name": "newCownership",
      "outputs": [],
      "payable": false,
      "stateMutability": "nonpayable",
      "type": "function"
    }
  ],
  "bytecode": "0x608060405234801561001057600080fd5b506103c2806100206000396000f3fe608060405234801561001057600080fd5b50600436106100365760003560e01c806383ed014f1461003b578063d4eb2a891461010a575b600080fd5b6101086004803603606081101561005157600080fd5b810190808035906020019064010000000081111561006e57600080fd5b82018360208201111561008057600080fd5b803590602001918460018302840111640100000000831117156100a257600080fd5b91908080601f016020809104026020016040519081016040528093929190818152602001838380828437600081840152601f19601f82011690508083019250505050505050919291929080359060200190929190803590602001909291905050506101c6565b005b6101366004803603602081101561012057600080fd5b8101908080359060200190929190505050610220565b6040518085815260200180602001848152602001838152602001828103825285818151815260200191508051906020019080838360005b8381101561018857808201518184015260208101905061016d565b50505050905090810190601f1680156101b55780820380516001836020036101000a031916815260200191505b509550505050505060405180910390f35b6000808154809291906001019190505550600060016000805481526020019081526020016000209050828160020181905550818160030181905550838160010190805190602001906102199291906102e8565b5050505050565b6001602052806000526040600020600091509050806000015490806001018054600181600116156101000203166002900480601f0160208091040260200160405190810160405280929190818152602001828054600181600116156101000203166002900480156102d25780601f106102a7576101008083540402835291602001916102d2565b820191906000526020600020905b8154815290600101906020018083116102b557829003601f168201915b5050505050908060020154908060030154905084565b828054600181600116156101000203166002900490600052602060002090601f016020900481019282601f1061032957805160ff1916838001178555610357565b82800160010185558215610357579182015b8281111561035657825182559160200191906001019061033b565b5b5090506103649190610368565b5090565b61038a91905b8082111561038657600081600090555060010161036e565b5090565b9056fea265627a7a723158206695e35fb599be7e1c90f28437f5638b4761f9f0cfe8fa74886a516adaec905a64736f6c63430005100032",
  "source": "pragma solidity>=0.4.20;\r\n\r\ncontract cownershipcontract\r\n{   \r\n    struct cownership\r\n        {   uint cownership_id;\r\n            string  imageHash;\r\n            int  owner_id;\r\n            int  user_id;\r\n        }\r\n    uint numCownerships;\r\n     mapping(uint => cownership) public cownershiplicenses;\r\n    function newCownership(string memory _imageHash,int _owner_id,int _user_id) public \r\n    {   \r\n         numCownerships++;\r\n          cownership storage c = cownershiplicenses[numCownerships];\r\n          c.owner_id =  _owner_id;\r\n          c.user_id = _user_id;\r\n          c.imageHash=_imageHash;\r\n     \r\n    }\r\n   \r\n}",
  "sourcePath": "C:\\Users\\malav\\Downloads\\FinalYearProject-master\\FinalYearProject-master\\client\\src\\contracts\\cownershipcontract.sol",
  "compiler": {
    "name": "solc",
    "version": "0.5.16+commit.9c3226ce.Emscripten.clang"
  },
  "schemaVersion": "3.4.6",
  "updatedAt": "2022-06-06T16:07:29.415Z",
  "devdoc": {
    "methods": {}
  },
  "userdoc": {
    "methods": {}
  }
}